{
  "contractName": "ToDo",
  "abi": [
    {
      "inputs": [],
      "stateMutability": "nonpayable",
      "type": "constructor"
    },
    {
      "anonymous": false,
      "inputs": [
        {
          "indexed": false,
          "internalType": "uint256",
          "name": "",
          "type": "uint256"
        },
        {
          "indexed": false,
          "internalType": "uint256",
          "name": "",
          "type": "uint256"
        },
        {
          "indexed": false,
          "internalType": "string",
          "name": "",
          "type": "string"
        },
        {
          "indexed": false,
          "internalType": "string",
          "name": "",
          "type": "string"
        },
        {
          "indexed": false,
          "internalType": "bool",
          "name": "",
          "type": "bool"
        }
      ],
      "name": "TaskCreated",
      "type": "event"
    },
    {
      "inputs": [
        {
          "internalType": "string",
          "name": "_content",
          "type": "string"
        },
        {
          "internalType": "string",
          "name": "_author",
          "type": "string"
        }
      ],
      "name": "createTask",
      "outputs": [],
      "stateMutability": "nonpayable",
      "type": "function"
    },
    {
      "inputs": [],
      "name": "getTaskIds",
      "outputs": [
        {
          "internalType": "uint256[]",
          "name": "",
          "type": "uint256[]"
        }
      ],
      "stateMutability": "view",
      "type": "function",
      "constant": true
    },
    {
      "inputs": [
        {
          "internalType": "uint256",
          "name": "id",
          "type": "uint256"
        }
      ],
      "name": "getTask",
      "outputs": [
        {
          "internalType": "uint256",
          "name": "",
          "type": "uint256"
        },
        {
          "internalType": "uint256",
          "name": "",
          "type": "uint256"
        },
        {
          "internalType": "string",
          "name": "",
          "type": "string"
        },
        {
          "internalType": "string",
          "name": "",
          "type": "string"
        },
        {
          "internalType": "bool",
          "name": "",
          "type": "bool"
        }
      ],
      "stateMutability": "view",
      "type": "function",
      "constant": true
    }
  ],
  "bytecode": "0x608060405234801561001057600080fd5b50600080819055506109dd806100276000396000f3fe608060405234801561001057600080fd5b50600436106100415760003560e01c80631d65e77e14610046578063292a45851461007a578063bcd1480514610096575b600080fd5b610060600480360381019061005b91906104f2565b6100b4565b6040516100719594939291906105e2565b60405180910390f35b610094600480360381019061008f9190610778565b610274565b005b61009e6103ad565b6040516100ab91906108ae565b60405180910390f35b60008060608060008560006002600083815260200190815260200160002060000154036100e057600080fd5b866002600089815260200190815260200160002060010154600260008a8152602001908152602001600020600201600260008b8152602001908152602001600020600301600260008c815260200190815260200160002060040160009054906101000a900460ff16828054610154906108ff565b80601f0160208091040260200160405190810160405280929190818152602001828054610180906108ff565b80156101cd5780601f106101a2576101008083540402835291602001916101cd565b820191906000526020600020905b8154815290600101906020018083116101b057829003601f168201915b505050505092508180546101e0906108ff565b80601f016020809104026020016040519081016040528092919081815260200182805461020c906108ff565b80156102595780601f1061022e57610100808354040283529160200191610259565b820191906000526020600020905b81548152906001019060200180831161023c57829003601f168201915b50505050509150955095509550955095505091939590929450565b6000808154809291906102869061095f565b91905055506040518060a001604052806000548152602001428152602001838152602001828152602001600015158152506002600080548152602001908152602001600020600082015181600001556020820151816001015560408201518160020190805190602001906102fb929190610405565b506060820151816003019080519060200190610318929190610405565b5060808201518160040160006101000a81548160ff021916908315150217905550905050600160005490806001815401808255809150506001900390600052602060002001600090919091909150557fb322bdd3250d405f7845d27fa1f0753f8f7e18e40886bc254b89005c3e9c032460005442848460006040516103a19594939291906105e2565b60405180910390a15050565b606060018054806020026020016040519081016040528092919081815260200182805480156103fb57602002820191906000526020600020905b8154815260200190600101908083116103e7575b5050505050905090565b828054610411906108ff565b90600052602060002090601f016020900481019282610433576000855561047a565b82601f1061044c57805160ff191683800117855561047a565b8280016001018555821561047a579182015b8281111561047957825182559160200191906001019061045e565b5b509050610487919061048b565b5090565b5b808211156104a457600081600090555060010161048c565b5090565b6000604051905090565b600080fd5b600080fd5b6000819050919050565b6104cf816104bc565b81146104da57600080fd5b50565b6000813590506104ec816104c6565b92915050565b600060208284031215610508576105076104b2565b5b6000610516848285016104dd565b91505092915050565b610528816104bc565b82525050565b600081519050919050565b600082825260208201905092915050565b60005b8381101561056857808201518184015260208101905061054d565b83811115610577576000848401525b50505050565b6000601f19601f8301169050919050565b60006105998261052e565b6105a38185610539565b93506105b381856020860161054a565b6105bc8161057d565b840191505092915050565b60008115159050919050565b6105dc816105c7565b82525050565b600060a0820190506105f7600083018861051f565b610604602083018761051f565b8181036040830152610616818661058e565b9050818103606083015261062a818561058e565b905061063960808301846105d3565b9695505050505050565b600080fd5b600080fd5b7f4e487b7100000000000000000000000000000000000000000000000000000000600052604160045260246000fd5b6106858261057d565b810181811067ffffffffffffffff821117156106a4576106a361064d565b5b80604052505050565b60006106b76104a8565b90506106c3828261067c565b919050565b600067ffffffffffffffff8211156106e3576106e261064d565b5b6106ec8261057d565b9050602081019050919050565b82818337600083830152505050565b600061071b610716846106c8565b6106ad565b90508281526020810184848401111561073757610736610648565b5b6107428482856106f9565b509392505050565b600082601f83011261075f5761075e610643565b5b813561076f848260208601610708565b91505092915050565b6000806040838503121561078f5761078e6104b2565b5b600083013567ffffffffffffffff8111156107ad576107ac6104b7565b5b6107b98582860161074a565b925050602083013567ffffffffffffffff8111156107da576107d96104b7565b5b6107e68582860161074a565b9150509250929050565b600081519050919050565b600082825260208201905092915050565b6000819050602082019050919050565b610825816104bc565b82525050565b6000610837838361081c565b60208301905092915050565b6000602082019050919050565b600061085b826107f0565b61086581856107fb565b93506108708361080c565b8060005b838110156108a1578151610888888261082b565b975061089383610843565b925050600181019050610874565b5085935050505092915050565b600060208201905081810360008301526108c88184610850565b905092915050565b7f4e487b7100000000000000000000000000000000000000000000000000000000600052602260045260246000fd5b6000600282049050600182168061091757607f821691505b60208210810361092a576109296108d0565b5b50919050565b7f4e487b7100000000000000000000000000000000000000000000000000000000600052601160045260246000fd5b600061096a826104bc565b91507fffffffffffffffffffffffffffffffffffffffffffffffffffffffffffffffff820361099c5761099b610930565b5b60018201905091905056fea2646970667358221220dc6405c62707fec99166775b7d65b81c577219598b4fb0d57cc569eafa2dc8ed64736f6c634300080d0033",
  "immutableReferences": {},
  "source": "// SPDX-License-Identifier: MIT\npragma solidity ^0.8.11;\n\ncontract ToDo {\n  struct Task{\n    uint id;\n    uint date;\n    string content;\n    string author;\n    bool done;\n  }\n  uint lastTaskId;\n  uint[] taskIds;\n  mapping(uint => Task) tasks;\n\n  event TaskCreated(uint ,uint, string, string,bool);\n\n  constructor(){\n    lastTaskId = 0;\n  }\n\n  function createTask(string memory _content, string memory _author) public{\n    lastTaskId++;\n    tasks[lastTaskId] = Task(lastTaskId, block.timestamp, _content, _author, false);\n    taskIds.push(lastTaskId);\n    emit TaskCreated(lastTaskId, block.timestamp, _content, _author, false);\n  }\n\n  function getTaskIds() public view returns(uint[] memory){\n    return taskIds;\n  }\n\n  function getTask(uint id) taskExisits(id) public view\n  returns(\n    uint,\n    uint,\n    string memory,\n    string memory,\n    bool\n  ){\n    \n    return(\n      id,\n      tasks[id].date,\n      tasks[id].content,\n      tasks[id].author,\n      tasks[id].done\n    );\n  }\n\n  modifier taskExisits(uint id){\n    if(tasks[id].id == 0){\n      revert();\n    }\n    _;\n  }\n\n}\n",
  "sourcePath": "E:\\blockchain Courses\\practice\\todolist-dapp\\contracts\\ToDo.sol",
  "compiler": {
    "name": "solc",
    "version": "0.8.13+commit.abaa5c0e.Emscripten.clang"
  },
  "schemaVersion": "3.4.7",
  "updatedAt": "2022-06-17T21:16:31.760Z",
  "networkType": "ethereum",
  "devdoc": {
    "kind": "dev",
    "methods": {},
    "version": 1
  },
  "userdoc": {
    "kind": "user",
    "methods": {},
    "version": 1
  }
}