{
  "contractName": "ToDo",
  "abi": [
    {
      "inputs": [],
      "stateMutability": "nonpayable",
      "type": "constructor"
    },
    {
      "anonymous": false,
      "inputs": [
        {
          "indexed": false,
          "internalType": "uint256",
          "name": "id",
          "type": "uint256"
        },
        {
          "indexed": false,
          "internalType": "uint256",
          "name": "date",
          "type": "uint256"
        },
        {
          "indexed": false,
          "internalType": "string",
          "name": "content",
          "type": "string"
        },
        {
          "indexed": false,
          "internalType": "string",
          "name": "author",
          "type": "string"
        },
        {
          "indexed": false,
          "internalType": "bool",
          "name": "done",
          "type": "bool"
        }
      ],
      "name": "TaskCreated",
      "type": "event"
    },
    {
      "anonymous": false,
      "inputs": [
        {
          "indexed": false,
          "internalType": "uint256",
          "name": "id",
          "type": "uint256"
        },
        {
          "indexed": false,
          "internalType": "bool",
          "name": "done",
          "type": "bool"
        },
        {
          "indexed": false,
          "internalType": "uint256",
          "name": "date",
          "type": "uint256"
        }
      ],
      "name": "TaskStatusToggled",
      "type": "event"
    },
    {
      "inputs": [
        {
          "internalType": "string",
          "name": "_content",
          "type": "string"
        },
        {
          "internalType": "string",
          "name": "_author",
          "type": "string"
        }
      ],
      "name": "createTask",
      "outputs": [],
      "stateMutability": "nonpayable",
      "type": "function"
    },
    {
      "inputs": [],
      "name": "getTaskIds",
      "outputs": [
        {
          "internalType": "uint256[]",
          "name": "",
          "type": "uint256[]"
        }
      ],
      "stateMutability": "view",
      "type": "function",
      "constant": true
    },
    {
      "inputs": [
        {
          "internalType": "uint256",
          "name": "id",
          "type": "uint256"
        }
      ],
      "name": "getTask",
      "outputs": [
        {
          "internalType": "uint256",
          "name": "",
          "type": "uint256"
        },
        {
          "internalType": "uint256",
          "name": "",
          "type": "uint256"
        },
        {
          "internalType": "string",
          "name": "",
          "type": "string"
        },
        {
          "internalType": "string",
          "name": "",
          "type": "string"
        },
        {
          "internalType": "bool",
          "name": "",
          "type": "bool"
        },
        {
          "internalType": "uint256",
          "name": "",
          "type": "uint256"
        }
      ],
      "stateMutability": "view",
      "type": "function",
      "constant": true
    },
    {
      "inputs": [],
      "name": "getTaskFixtures",
      "outputs": [
        {
          "internalType": "uint256",
          "name": "",
          "type": "uint256"
        },
        {
          "internalType": "uint256",
          "name": "",
          "type": "uint256"
        },
        {
          "internalType": "string",
          "name": "",
          "type": "string"
        },
        {
          "internalType": "string",
          "name": "",
          "type": "string"
        },
        {
          "internalType": "bool",
          "name": "",
          "type": "bool"
        }
      ],
      "stateMutability": "view",
      "type": "function",
      "constant": true
    },
    {
      "inputs": [
        {
          "internalType": "uint256",
          "name": "id",
          "type": "uint256"
        }
      ],
      "name": "toggleDone",
      "outputs": [],
      "stateMutability": "nonpayable",
      "type": "function"
    }
  ],
  "bytecode": "0x608060405234801561001057600080fd5b5060008081905550610da9806100276000396000f3fe608060405234801561001057600080fd5b50600436106100575760003560e01c8063132a61d91461005c5780631d65e77e1461007e578063292a4585146100b3578063bcd14805146100cf578063d81ef739146100ed575b600080fd5b610064610109565b60405161007595949392919061089b565b60405180910390f35b6100986004803603810190610093919061093c565b610194565b6040516100aa96959493929190610969565b60405180910390f35b6100cd60048036038101906100c89190610b0d565b61036e565b005b6100d76104b8565b6040516100e49190610c43565b60405180910390f35b6101076004803603810190610102919061093c565b610510565b005b6000806060806000804260006040518060400160405280601d81526020017f437265617465206d6f7265207475746f7269616c7320666f7220455442000000815250906040518060400160405280600681526020017f4a756c69656e000000000000000000000000000000000000000000000000000081525090945094509450945094509091929394565b6000806060806000808660006002600083815260200190815260200160002060000154036101c157600080fd5b87600260008a815260200190815260200160002060010154600260008b8152602001908152602001600020600201600260008c8152602001908152602001600020600301600260008d815260200190815260200160002060040160009054906101000a900460ff16600260008e81526020019081526020016000206005015483805461024c90610c94565b80601f016020809104026020016040519081016040528092919081815260200182805461027890610c94565b80156102c55780601f1061029a576101008083540402835291602001916102c5565b820191906000526020600020905b8154815290600101906020018083116102a857829003601f168201915b505050505093508280546102d890610c94565b80601f016020809104026020016040519081016040528092919081815260200182805461030490610c94565b80156103515780601f1061032657610100808354040283529160200191610351565b820191906000526020600020905b81548152906001019060200180831161033457829003601f168201915b505050505092509650965096509650965096505091939550919395565b60008081548092919061038090610cf4565b91905055506040518060c00160405280600054815260200142815260200183815260200182815260200160001515815260200160008152506002600080548152602001908152602001600020600082015181600001556020820151816001015560408201518160020190805190602001906103fc92919061072b565b50606082015181600301908051906020019061041992919061072b565b5060808201518160040160006101000a81548160ff02191690831515021790555060a08201518160050155905050600160005490806001815401808255809150506001900390600052602060002001600090919091909150557fb322bdd3250d405f7845d27fa1f0753f8f7e18e40886bc254b89005c3e9c032460005442848460006040516104ac95949392919061089b565b60405180910390a15050565b6060600180548060200260200160405190810160405280929190818152602001828054801561050657602002820191906000526020600020905b8154815260200190600101908083116104f2575b5050505050905090565b80600060026000838152602001908152602001600020600001540361053457600080fd5b6000600260008481526020019081526020016000206040518060c0016040529081600082015481526020016001820154815260200160028201805461057890610c94565b80601f01602080910402602001604051908101604052809291908181526020018280546105a490610c94565b80156105f15780601f106105c6576101008083540402835291602001916105f1565b820191906000526020600020905b8154815290600101906020018083116105d457829003601f168201915b5050505050815260200160038201805461060a90610c94565b80601f016020809104026020016040519081016040528092919081815260200182805461063690610c94565b80156106835780601f1061065857610100808354040283529160200191610683565b820191906000526020600020905b81548152906001019060200180831161066657829003601f168201915b505050505081526020016004820160009054906101000a900460ff16151515158152602001600582015481525050905080608001511581608001901515908115158152505080608001516106d85760006106da565b425b8160a00181815250507fcb1ceae718a6ae11d5daf00e292e318717e0acf2d326ed670df0e5ff67ba50008382608001518360a0015160405161071e93929190610d3c565b60405180910390a1505050565b82805461073790610c94565b90600052602060002090601f01602090048101928261075957600085556107a0565b82601f1061077257805160ff19168380011785556107a0565b828001600101855582156107a0579182015b8281111561079f578251825591602001919060010190610784565b5b5090506107ad91906107b1565b5090565b5b808211156107ca5760008160009055506001016107b2565b5090565b6000819050919050565b6107e1816107ce565b82525050565b600081519050919050565b600082825260208201905092915050565b60005b83811015610821578082015181840152602081019050610806565b83811115610830576000848401525b50505050565b6000601f19601f8301169050919050565b6000610852826107e7565b61085c81856107f2565b935061086c818560208601610803565b61087581610836565b840191505092915050565b60008115159050919050565b61089581610880565b82525050565b600060a0820190506108b060008301886107d8565b6108bd60208301876107d8565b81810360408301526108cf8186610847565b905081810360608301526108e38185610847565b90506108f2608083018461088c565b9695505050505050565b6000604051905090565b600080fd5b600080fd5b610919816107ce565b811461092457600080fd5b50565b60008135905061093681610910565b92915050565b60006020828403121561095257610951610906565b5b600061096084828501610927565b91505092915050565b600060c08201905061097e60008301896107d8565b61098b60208301886107d8565b818103604083015261099d8187610847565b905081810360608301526109b18186610847565b90506109c0608083018561088c565b6109cd60a08301846107d8565b979650505050505050565b600080fd5b600080fd5b7f4e487b7100000000000000000000000000000000000000000000000000000000600052604160045260246000fd5b610a1a82610836565b810181811067ffffffffffffffff82111715610a3957610a386109e2565b5b80604052505050565b6000610a4c6108fc565b9050610a588282610a11565b919050565b600067ffffffffffffffff821115610a7857610a776109e2565b5b610a8182610836565b9050602081019050919050565b82818337600083830152505050565b6000610ab0610aab84610a5d565b610a42565b905082815260208101848484011115610acc57610acb6109dd565b5b610ad7848285610a8e565b509392505050565b600082601f830112610af457610af36109d8565b5b8135610b04848260208601610a9d565b91505092915050565b60008060408385031215610b2457610b23610906565b5b600083013567ffffffffffffffff811115610b4257610b4161090b565b5b610b4e85828601610adf565b925050602083013567ffffffffffffffff811115610b6f57610b6e61090b565b5b610b7b85828601610adf565b9150509250929050565b600081519050919050565b600082825260208201905092915050565b6000819050602082019050919050565b610bba816107ce565b82525050565b6000610bcc8383610bb1565b60208301905092915050565b6000602082019050919050565b6000610bf082610b85565b610bfa8185610b90565b9350610c0583610ba1565b8060005b83811015610c36578151610c1d8882610bc0565b9750610c2883610bd8565b925050600181019050610c09565b5085935050505092915050565b60006020820190508181036000830152610c5d8184610be5565b905092915050565b7f4e487b7100000000000000000000000000000000000000000000000000000000600052602260045260246000fd5b60006002820490506001821680610cac57607f821691505b602082108103610cbf57610cbe610c65565b5b50919050565b7f4e487b7100000000000000000000000000000000000000000000000000000000600052601160045260246000fd5b6000610cff826107ce565b91507fffffffffffffffffffffffffffffffffffffffffffffffffffffffffffffffff8203610d3157610d30610cc5565b5b600182019050919050565b6000606082019050610d5160008301866107d8565b610d5e602083018561088c565b610d6b60408301846107d8565b94935050505056fea264697066735822122035dcf356036e5072949118c5a9e88044cea2f3e54e5da36a71fbf2cdded7399864736f6c634300080d0033",
  "immutableReferences": {},
  "source": "// SPDX-License-Identifier: MIT\npragma solidity ^0.8.11;\n\ncontract ToDo {\n  struct Task{\n    uint id;\n    uint date;\n    string content;\n    string author;\n    bool done;\n    uint dateComplete;\n  }\n  uint lastTaskId;\n  uint[] taskIds;\n  mapping(uint => Task) tasks;\n  event TaskCreated(uint id ,uint date, string content, string author,bool done);\n  event TaskStatusToggled(uint id, bool done, uint date);\n\n  constructor(){\n    lastTaskId = 0;\n  }\n\n  function createTask(string memory _content, string memory _author) public{\n    lastTaskId++;\n    tasks[lastTaskId] = Task(lastTaskId, block.timestamp, _content, _author, false ,0);\n    taskIds.push(lastTaskId);\n    emit TaskCreated(lastTaskId, block.timestamp, _content, _author, false);\n  }\n\n  function getTaskIds() public view returns(uint[] memory){\n    return taskIds;\n  }\n\n  function getTask(uint id) taskExisits(id) public view\n  returns(\n    uint,\n    uint,\n    string memory,\n    string memory,\n    bool,\n    uint\n  ){\n    \n    return(\n      id,\n      tasks[id].date,\n      tasks[id].content,\n      tasks[id].author,\n      tasks[id].done,\n      tasks[id].dateComplete\n    );\n  }\n  \n  function getTaskFixtures() public view returns(\n      uint,\n      uint,\n      string memory,\n      string memory,\n      bool\n      ) {\n    return (0, block.timestamp, \"Create more tutorials for ETB\", \"Julien\", false); \n  }\n  \n  function toggleDone(uint id) taskExisits(id) public {\n      Task memory task = tasks[id];\n      task.done = !task.done;\n      task.dateComplete = task.done ? block.timestamp : 0;\n      emit TaskStatusToggled(id, task.done, task.dateComplete);\n  }\n\n  modifier taskExisits(uint id){\n    if(tasks[id].id == 0){\n      revert();\n    }\n    _;\n  }\n\n}\n",
  "sourcePath": "E:\\blockchain Courses\\practice\\todolist-dapp\\contracts\\ToDo.sol",
  "compiler": {
    "name": "solc",
    "version": "0.8.13+commit.abaa5c0e.Emscripten.clang"
  },
  "schemaVersion": "3.4.7",
  "updatedAt": "2022-06-20T21:56:31.819Z",
  "networkType": "ethereum",
  "devdoc": {
    "kind": "dev",
    "methods": {},
    "version": 1
  },
  "userdoc": {
    "kind": "user",
    "methods": {},
    "version": 1
  }
}