{
  "contractName": "ToDo",
  "abi": [
    {
      "inputs": [
        {
          "internalType": "string",
          "name": "_content",
          "type": "string"
        },
        {
          "internalType": "string",
          "name": "_author",
          "type": "string"
        }
      ],
      "name": "createTask",
      "outputs": [],
      "stateMutability": "nonpayable",
      "type": "function"
    },
    {
      "inputs": [
        {
          "internalType": "uint256",
          "name": "id",
          "type": "uint256"
        }
      ],
      "name": "getTask",
      "outputs": [
        {
          "internalType": "uint256",
          "name": "",
          "type": "uint256"
        },
        {
          "internalType": "uint256",
          "name": "",
          "type": "uint256"
        },
        {
          "internalType": "string",
          "name": "",
          "type": "string"
        },
        {
          "internalType": "string",
          "name": "",
          "type": "string"
        },
        {
          "internalType": "bool",
          "name": "",
          "type": "bool"
        }
      ],
      "stateMutability": "view",
      "type": "function",
      "constant": true
    },
    {
      "inputs": [],
      "name": "getTasks",
      "outputs": [
        {
          "components": [
            {
              "internalType": "uint256",
              "name": "id",
              "type": "uint256"
            },
            {
              "internalType": "uint256",
              "name": "date",
              "type": "uint256"
            },
            {
              "internalType": "string",
              "name": "content",
              "type": "string"
            },
            {
              "internalType": "string",
              "name": "author",
              "type": "string"
            },
            {
              "internalType": "bool",
              "name": "done",
              "type": "bool"
            }
          ],
          "internalType": "struct ToDo.Task[]",
          "name": "",
          "type": "tuple[]"
        }
      ],
      "stateMutability": "view",
      "type": "function",
      "constant": true
    }
  ],
  "bytecode": "0x608060405234801561001057600080fd5b50610b84806100206000396000f3fe608060405234801561001057600080fd5b50600436106100415760003560e01c806304a87e38146100465780631d65e77e14610064578063292a458514610098575b600080fd5b61004e6100b4565b60405161005b91906107ba565b60405180910390f35b61007e6004803603810190610079919061081c565b610266565b60405161008f9594939291906108b1565b60405180910390f35b6100b260048036038101906100ad9190610a47565b61043d565b005b60606000805480602002602001604051908101604052809291908181526020016000905b8282101561025d57838290600052602060002090600502016040518060a0016040529081600082015481526020016001820154815260200160028201805461011f90610aee565b80601f016020809104026020016040519081016040528092919081815260200182805461014b90610aee565b80156101985780601f1061016d57610100808354040283529160200191610198565b820191906000526020600020905b81548152906001019060200180831161017b57829003601f168201915b505050505081526020016003820180546101b190610aee565b80601f01602080910402602001604051908101604052809291908181526020018280546101dd90610aee565b801561022a5780601f106101ff5761010080835404028352916020019161022a565b820191906000526020600020905b81548152906001019060200180831161020d57829003601f168201915b505050505081526020016004820160009054906101000a900460ff161515151581525050815260200190600101906100d8565b50505050905090565b6000806060806000856000878154811061028357610282610b1f565b5b906000526020600020906005020160010154600088815481106102a9576102a8610b1f565b5b9060005260206000209060050201600201600089815481106102ce576102cd610b1f565b5b906000526020600020906005020160030160008a815481106102f3576102f2610b1f565b5b906000526020600020906005020160040160009054906101000a900460ff1682805461031e90610aee565b80601f016020809104026020016040519081016040528092919081815260200182805461034a90610aee565b80156103975780601f1061036c57610100808354040283529160200191610397565b820191906000526020600020905b81548152906001019060200180831161037a57829003601f168201915b505050505092508180546103aa90610aee565b80601f01602080910402602001604051908101604052809291908181526020018280546103d690610aee565b80156104235780601f106103f857610100808354040283529160200191610423565b820191906000526020600020905b81548152906001019060200180831161040657829003601f168201915b505050505091509450945094509450945091939590929450565b60006040518060a001604052806000805490508152602001428152602001848152602001838152602001600015158152509080600181540180825580915050600190039060005260206000209060050201600090919091909150600082015181600001556020820151816001015560408201518160020190805190602001906104c792919061050b565b5060608201518160030190805190602001906104e492919061050b565b5060808201518160040160006101000a81548160ff02191690831515021790555050505050565b82805461051790610aee565b90600052602060002090601f0160209004810192826105395760008555610580565b82601f1061055257805160ff1916838001178555610580565b82800160010185558215610580579182015b8281111561057f578251825591602001919060010190610564565b5b50905061058d9190610591565b5090565b5b808211156105aa576000816000905550600101610592565b5090565b600081519050919050565b600082825260208201905092915050565b6000819050602082019050919050565b6000819050919050565b6105ed816105da565b82525050565b600081519050919050565b600082825260208201905092915050565b60005b8381101561062d578082015181840152602081019050610612565b8381111561063c576000848401525b50505050565b6000601f19601f8301169050919050565b600061065e826105f3565b61066881856105fe565b935061067881856020860161060f565b61068181610642565b840191505092915050565b60008115159050919050565b6106a18161068c565b82525050565b600060a0830160008301516106bf60008601826105e4565b5060208301516106d260208601826105e4565b50604083015184820360408601526106ea8282610653565b915050606083015184820360608601526107048282610653565b91505060808301516107196080860182610698565b508091505092915050565b600061073083836106a7565b905092915050565b6000602082019050919050565b6000610750826105ae565b61075a81856105b9565b93508360208202850161076c856105ca565b8060005b858110156107a857848403895281516107898582610724565b945061079483610738565b925060208a01995050600181019050610770565b50829750879550505050505092915050565b600060208201905081810360008301526107d48184610745565b905092915050565b6000604051905090565b600080fd5b600080fd5b6107f9816105da565b811461080457600080fd5b50565b600081359050610816816107f0565b92915050565b600060208284031215610832576108316107e6565b5b600061084084828501610807565b91505092915050565b610852816105da565b82525050565b600082825260208201905092915050565b6000610874826105f3565b61087e8185610858565b935061088e81856020860161060f565b61089781610642565b840191505092915050565b6108ab8161068c565b82525050565b600060a0820190506108c66000830188610849565b6108d36020830187610849565b81810360408301526108e58186610869565b905081810360608301526108f98185610869565b905061090860808301846108a2565b9695505050505050565b600080fd5b600080fd5b7f4e487b7100000000000000000000000000000000000000000000000000000000600052604160045260246000fd5b61095482610642565b810181811067ffffffffffffffff821117156109735761097261091c565b5b80604052505050565b60006109866107dc565b9050610992828261094b565b919050565b600067ffffffffffffffff8211156109b2576109b161091c565b5b6109bb82610642565b9050602081019050919050565b82818337600083830152505050565b60006109ea6109e584610997565b61097c565b905082815260208101848484011115610a0657610a05610917565b5b610a118482856109c8565b509392505050565b600082601f830112610a2e57610a2d610912565b5b8135610a3e8482602086016109d7565b91505092915050565b60008060408385031215610a5e57610a5d6107e6565b5b600083013567ffffffffffffffff811115610a7c57610a7b6107eb565b5b610a8885828601610a19565b925050602083013567ffffffffffffffff811115610aa957610aa86107eb565b5b610ab585828601610a19565b9150509250929050565b7f4e487b7100000000000000000000000000000000000000000000000000000000600052602260045260246000fd5b60006002820490506001821680610b0657607f821691505b602082108103610b1957610b18610abf565b5b50919050565b7f4e487b7100000000000000000000000000000000000000000000000000000000600052603260045260246000fdfea264697066735822122099647693b17ae2f51de12e93e9350dc7871016ade2c6a24a56d1fab267a0d76764736f6c634300080d0033",
  "immutableReferences": {},
  "source": "// SPDX-License-Identifier: MIT\npragma solidity ^0.8.11;\n\ncontract ToDo {\n  struct Task{\n    uint id;\n    uint date;\n    string content;\n    string author;\n    bool done;\n  }\n\n  Task[] tasks;\n\n  function createTask(string memory _content, string memory _author) public{\n    tasks.push(Task(tasks.length, block.timestamp, _content, _author, false));\n  }\n\n  function getTask(uint id) public view\n  returns(\n    uint,\n    uint,\n    string memory,\n    string memory,\n    bool\n  ){\n    return(\n      id,\n      tasks[id].date,\n      tasks[id].content,\n      tasks[id].author,\n      tasks[id].done\n    );\n  }\n\n  function getTasks() public view returns(Task[] memory){\n    return tasks;\n  }\n\n}\n",
  "sourcePath": "E:\\blockchain Courses\\practice\\Todo-dapp\\my-app\\contracts\\ToDo.sol",
  "compiler": {
    "name": "solc",
    "version": "0.8.13+commit.abaa5c0e.Emscripten.clang"
  },
  "schemaVersion": "3.4.7",
  "updatedAt": "2022-06-12T01:46:45.704Z",
  "networkType": "ethereum",
  "devdoc": {
    "kind": "dev",
    "methods": {},
    "version": 1
  },
  "userdoc": {
    "kind": "user",
    "methods": {},
    "version": 1
  }
}